:040000000DEF00F010
:04000800F9EF21F0FB
:06001800FF0086EF22F05C
:10200000000257001251004C55005C3700A63E00FC
:10201000824400124000EA5600B65800A85800B0AA
:1020200051004858005A5800D256003658006E5693
:0B203000001848001A4600545600003B
:10203C000450800B0D6E045004240F6E03AE29EF78
:10204C0010F02BEF10F02CEF10F00F800F50D8B4D5
:10205C0032EF10F034EF10F049EF10F00F28D8A445
:10206C003AEF10F03CEF10F044EF10F0000E016E60
:10207C00000E026E000E036E000E046E038E000E38
:10208C00046E51EF10F0000E016E000E026E000E89
:10209C00036E000E046E0850800B0E6E0D500E1861
:1020AC00D8B45BEF10F05DEF10F05EEF10F00D8C1C
:1020BC00085008240E6E07AE66EF10F068EF10F0B3
:1020CC0069EF10F00E800E50D8B46FEF10F071EF76
:1020DC0010F086EF10F00E28D8A477EF10F079EFFF
:1020EC0010F081EF10F0000E056E000E066E000E63
:1020FC00076E000E086E078E000E086E8EEF10F045
:10210C00000E056E000E066E000E076E000E086EB9
:10211C000F500E5CD8B095EF10F097EF10F0BEEFAB
:10212C0010F00DAC9CEF10F09EEF10F0A0EF10F043
:10213C00800E0D1A0FC010F00EC00FF010C00EF074
:10214C0001C010F005C001F010C005F002C010F085
:10215C0006C002F010C006F003C010F007C003F078
:10216C0010C007F004C010F008C004F010C008F054
:10217C00000E106E0F500EC009F00A6A095E000EB8
:10218C000A5A0ABED3EF10F00A5009E11A0E095C84
:10219C00D8A0D3EF10F0D5EF10F00CEF11F00150E8
:1021AC00021003100410D8A4DEEF10F0E1EF10F0D1
:1021BC00010EE2EF10F0000E106E000E016E000E1C
:1021CC00026E000E036E000E046E0EC00FF015EFC3
:1021DC0011F010A0F4EF10F0F6EF10F0FCEF10F08F
:1021EC00D89010300109106EFEEF10F0D89010321C
:1021FC0001A003EF11F005EF11F006EF11F0108EB6
:10220C00043404320332023201320F2A0E500F5CB6
:10221C00D8A013EF11F015EF11F0EFEF10F00DBC8B
:10222C001AEF11F01CEF11F05CEF11F00F50D8A465
:10223C0022EF11F024EF11F02EEF11F0000E016ED1
:10224C00000E026E000E036E000E046E7DEF12F097
:10225C000550012606500222075003220850042282
:10226C0004A03BEF11F03DEF11F0E9EF11F010A0DD
:10227C0042EF11F044EF11F04AEF11F0D89010300A
:10228C000109106E4CEF11F0D890103201A051EFF3
:10229C0011F053EF11F054EF11F0108E043404329E
:1022AC000332023201320F2AE9EF11F00550015CC2
:1022BC0006500258075003580450800A096E085003
:1022CC00800A0958D8B06DEF11F06FEF11F09AEF4A
:1022DC0011F00150055C096E025006580A6E03504D
:1022EC0007580B6E045008580C6EFF0E0924016E33
:1022FC00FF0E0A20026EFF0E0B20036EFF0E0C2049
:10230C00046E800E0D1A106C1050D8A490EF11F0C2
:10231C0092EF11F0A2EF11F0010E0126000E022235
:10232C0003220422A2EF11F00550015E0650025A5E
:10233C000750035A0850045A01500210031004109D
:10234C00D8A4ABEF11F0ADEF11F0E2EF11F010509B
:10235C00D8A4B3EF11F0B5EF11F0E2EF11F0000ECD
:10236C00016E000E026E000E036E000E046E7DEF09
:10237C0012F0D890013602360336043610AEC9EF8F
:10238C0011F0CBEF11F0CCEF11F0018010A0D1EFD8
:10239C0011F0D3EF11F0D7EF11F0D8801036D9EF40
:1023AC0011F0D89010360F50D8B4DFEF11F0E1EFE8
:1023BC0011F0E2EF11F00F0603AEE7EF11F0E9EFC9
:1023CC0011F0BFEF11F0000E0E6E10AEF0EF11F029
:1023DC00F2EF11F00AEF12F010C009F07F0E09169F
:1023EC00D8B4FBEF11F0FDEF11F001EF12F0010E7C
:1023FC000E6E0AEF12F001A006EF12F008EF12F0C9
:10240C000AEF12F0FDEF11F00E50D8B410EF12F0ED
:10241C0012EF12F03DEF12F0010E0126000E022217
:10242C000322042204A01DEF12F01FEF12F03DEF67
:10243C0012F001C009F002C00AF003C00BF004C096
:10244C000CF00C340C320B320A32093209C001F098
:10245C000AC002F00BC003F00CC004F00F28D8B473
:10246C003AEF12F03CEF12F03DEF12F00F2A0F286A
:10247C00D8B443EF12F045EF12F04DEF12F00F50BD
:10248C00D8A44BEF12F04DEF12F05FEF12F0000EEC
:10249C00016E000E026E000E036E000E046E0F50E5
:1024AC00D8A45BEF12F05DEF12F05FEF12F0000EAC
:1024BC000D6E0FA064EF12F066EF12F069EF12F0E0
:1024CC00038E6AEF12F0039ED8900F30046E0DAE9F
:1024DC0072EF12F074EF12F075EF12F0048E01C06F
:1024EC0001F002C002F003C003F004C004F01200BB
:1024FC001C50800B256E1C501C242B6E1BAE89EFC0
:10250C0012F08BEF12F08CEF12F02B802B50D8B412
:10251C0092EF12F094EF12F0A7EF12F02B28D8A440
:10252C009AEF12F09CEF12F0A4EF12F0000E196E5D
:10253C00000E1A6E000E1B6E000E1C6E1B8EAFEF83
:10254C0012F0000E196E000E1A6E000E1B6E000EAD
:10255C001C6E2050800B251A20502024266E1FAE96
:10256C00BAEF12F0BCEF12F0BDEF12F0268026503D
:10257C00D8B4C3EF12F0C5EF12F0D8EF12F0262842
:10258C00D8A4CBEF12F0CDEF12F0D5EF12F0000E75
:10259C001D6E000E1E6E000E1F6E000E206E1F8E26
:1025AC00E0EF12F0000E1D6E000E1E6E000E1F6E80
:1025BC00000E206E2650D8B4E6EF12F0E8EF12F0C1
:1025CC00F0EF12F02B50D8A4EEEF12F0F0EF12F067
:1025DC00FAEF12F0000E196E000E1A6E000E1B6E42
:1025EC00000E1C6EA4EF14F01F5019026F00CCFFEC
:1025FC0030F06F00D0FF31F03050276E286A296A16
:10260C002A6A31502C6E2D6A2E6A2F6A1E501A02BD
:10261C006F00CCFF30F06F00D0FF31F03050272628
:10262C00000E282229222A2231502C26000E2D227F
:10263C002E222F221D501B026F00CCFF30F06F009A
:10264C00D0FF31F030502726000E282229222A22D2
:10265C0031502C26000E2D222E222F2229C02AF09A
:10266C0028C029F027C028F0276A1D501A026F00D5
:10267C00CCFF30F06F00D0FF31F0305027263150B6
:10268C002822000E2922000E2A221E5019026F0049
:10269C00CCFF30F06F00D0FF31F030502726315096
:1026AC002822000E2922000E2A2229C02AF028C036
:1026BC0029F027C028F0276A1D5019026F00CCFFA3
:1026CC0030F06F00D0FF31F03050272631502822E7
:1026DC00000E2922000E2A221F501A026F00CCFF76
:1026EC0030F06F00D0FF31F030502C2631502D22BD
:1026FC00000E2E22000E2F221E501B026F00CCFF4C
:10270C0030F06F00D0FF31F030502C2631502D229C
:10271C00000E2E22000E2F221F501B026F00CCFF2A
:10272C0030F06F00D0FF31F03050216E3150226EFE
:10273C00236A246A23C024F022C023F021C022F093
:10274C00216A21502C2622502D2223502E22245037
:10275C002F2227C021F028C022F029C023F02AC044
:10276C0024F0190EBFEF13F0D8902432233222320A
:10277C002132E82EBAEF13F021502C2622502D22B4
:10278C0023502E2224502F2229C02AF028C029F0B1
:10279C0027C028F0276A26502BC021F0226A212658
:1027AC00000E2222820E2124306EFF0E2220316E6A
:1027BC00F5EF13F0D8902C362D362E362F362AAE58
:1027CC00EAEF13F0ECEF13F0EDEF13F02C80D89050
:1027DC002736283629362A363006D8A031062EAEB2
:1027EC00FAEF13F0FCEF13F0E0EF13F0000E266E8F
:1027FC002AAE03EF14F005EF14F029EF14F0FF0EDE
:10280C002714216EFF0E2814226EFF0E2914236E3E
:10281C007F0E2A14246E2150221023102410D8B4B9
:10282C001AEF14F01CEF14F020EF14F0010E266ECA
:10283C0029EF14F02CA025EF14F027EF14F029EF5A
:10284C0014F01CEF14F02650D8B42FEF14F031EF25
:10285C0014F055EF14F0010E2C26000E2D222E2212
:10286C002F222FA03CEF14F03EEF14F055EF14F094
:10287C002CC021F02DC022F02EC023F02FC024F04C
:10288C002434243223322232213221C02CF022C0B3
:10289C002DF023C02EF024C02FF0304A312A31BE47
:1028AC0060EF14F0315008E13028D8A060EF14F03C
:1028BC0062EF14F06CEF14F0000E2C6E000E2D6E07
:1028CC00800E2E6E7F0E2F6E9AEF14F031BE79EFC4
:1028DC0014F0315006E13004D8B077EF14F079EFF2
:1028EC0014F085EF14F0000E2C6E000E2D6E000E01
:1028FC002E6E000E2F6E000E256E9AEF14F030C067
:10290C002BF0FF0E2C16FF0E2D167F0E2E16000E22
:10291C002F162BA094EF14F096EF14F097EF14F001
:10292C002E8ED8902B302F6E25502F122CC019F0D4
:10293C002DC01AF02EC01BF02FC01CF012001C5022
:10294C00800B296E1C501C24306E1BAEB0EF14F0A3
:10295C00B2EF14F0B3EF14F030803050D8B4B9EFBC
:10296C0014F0BBEF14F0D0EF14F03028D8A4C1EF62
:10297C0014F0C3EF14F0CBEF14F0000E196E000E30
:10298C001A6E000E1B6E000E1C6E1B8E000E1C6E43
:10299C00D8EF14F0000E196E000E1A6E000E1B6E9E
:1029AC00000E1C6E2050800B291A20502024316EF2
:1029BC001FAEE3EF14F0E5EF14F0E6EF14F0318006
:1029CC003150D8B4ECEF14F0EEEF14F003EF15F037
:1029DC003128D8A4F4EF14F0F6EF14F0FEEF14F055
:1029EC00000E1D6E000E1E6E000E1F6E000E206E71
:1029FC001F8E000E206E0BEF15F0000E1D6E000EDC
:102A0C001E6E000E1F6E000E206E1D501E101F102D
:102A1C002010D8A414EF15F016EF15F02EEF15F0CA
:102A2C00000E196E000E1A6E000E1B6E000E1C6E40
:102A3C00800E1B127F0E1C1229501C1219C019F08B
:102A4C001AC01AF01BC01BF01CC01CF071EF16F062
:102A5C003050D8A434EF15F036EF15F040EF15F0E8
:102A6C00000E196E000E1A6E000E1B6E000E1C6E00
:102A7C0071EF16F0315030C021F0226A215E000E49
:102A8C00225A7F0E21242A6E000E22202B6E19C092
:102A9C0025F01AC026F01BC027F01CC028F0000E31
:102AAC00196E000E1A6E000E1B6E000E1C6E000EC0
:102ABC002C6E000E2D6E000E2E6E000E2F6E000E64
:102ACC00316EA1EF15F03150D8B46FEF15F071EFF6
:102ADC0015F088EF15F0D89025362636273628368F
:102AEC00D89019361A361B361C362FAE80EF15F0DF
:102AFC0082EF15F083EF15F01980D8902C362D3617
:102B0C002E362F361D50255C1E5026581F50275828
:102B1C0020502858D8A095EF15F097EF15F0A0EF9E
:102B2C0015F02F8C1D50255E1E50265A1F50275A0B
:102B3C002050285A312A190E3164A7EF15F0A9EF4D
:102B4C0015F069EF15F02550261027102810D8B471
:102B5C00B2EF15F0B4EF15F0CCEF15F02C80CCEFF4
:102B6C0015F0D89019361A361B361C362FAEC1EF1D
:102B7C0015F0C3EF15F0C4EF15F01980D8902C3672
:102B8C002D362E362F362A06D8A02B061BAED1EFAB
:102B9C0015F0D3EF15F0B7EF15F0000E316E2FAE28
:102BAC00DAEF15F0DCEF15F000EF16F0FF0E2C1439
:102BBC00216EFF0E2D14226EFF0E2E14236E7F0E2F
:102BCC002F14246E2150221023102410D8B4F1EFAE
:102BDC0015F0F3EF15F0F7EF15F0010E316E00EF75
:102BEC0016F019A0FCEF15F0FEEF15F000EF16F043
:102BFC00F3EF15F03150D8B406EF16F008EF16F0DD
:102C0C002CEF16F0010E1926000E1A221B221C2284
:102C1C001CA013EF16F015EF16F02CEF16F019C0E0
:102C2C0021F01AC022F01BC023F01CC024F0243465
:102C3C00243223322232213221C019F022C01AF060
:102C4C0023C01BF024C01CF02A4A2B2A2BBE37EFC2
:102C5C0016F02B5008E12A28D8A037EF16F039EFE0
:102C6C0016F044EF16F0000E2B6E2A68000E196E4B
:102C7C00000E1A6E000E1B6E000E1C6E2BBE51EF5A
:102C8C0016F02B5006E12A04D8B04FEF16F051EF96
:102C9C0016F05FEF16F0000E2B6E000E2A6E000E73
:102CAC00196E000E1A6E000E1B6E000E1C6E000EBE
:102CBC00296E2AC030F030A066EF16F068EF16F0DF
:102CCC006BEF16F01B8E6CEF16F01B9ED89030300D
:102CDC001C6E22EF15F01200000E4F6E000E4E6EA1
:102CEC003CC001F03DC002F03EC003F03FC004F018
:102CFC00B90E406E010E416ED8904E34D96E4F34E1
:102D0C00DA6ED890D936DA364050D9264150DA22CC
:102D1C006F0078FF05F06F0078FF06F06F0078FF0A
:102D2C0007F06F0078FF08F0ECEC1DF0D8A0A1EFD5
:102D3C0016F0A3EF16F0DAEF16F03CC001F03DC030
:102D4C0002F03EC003F03FC004F0B90E406E010E1D
:102D5C00416E040E4026000E4122D8904E34D96E9E
:102D6C004F34DA6ED890D936DA364050D9264150E5
:102D7C00DA226F0078FF05F06F0078FF06F06F0025
:102D8C0078FF07F06F0078FF08F0ECEC1DF0D8B07E
:102D9C00D2EF16F0D4EF16F0DAEF16F04EC090F03A
:102DAC004FC091F0EAEF16F04E4A4F2A4FBEE8EFB3
:102DBC0016F04F5009E10B0E4E5CD8A0E8EF16F060
:102DCC00EAEF16F076EF16F0890E406E010E416EAA
:102DDC00D89000019035D96E9135DA6ED890D936ED
:102DEC00DA364050D9264150DA226F0078FF15F0C0
:102DFC006F0078FF16F06F0078FF17F06F0078FF08
:102E0C0018F0890E426E010E436E040E4226000E1F
:102E1C004322D8909035D96E9135DA6ED890D93648
:102E2C00DA364250D9264350DA226F0078FF11F07F
:102E3C006F0078FF12F06F0078FF13F06F0078FFCF
:102E4C0014F0EAEC27F011C019F012C01AF013C0FC
:102E5C001BF014C01CF0B90E446E010E456ED890D8
:102E6C0000019035D96E9135DA6ED890D936DA36B4
:102E7C004450D9264550DA226F0078FF15F06F00C8
:102E8C0078FF16F06F0078FF17F06F0078FF18F0DE
:102E9C00B90E466E010E476E040E4626000E4722F2
:102EAC00D8909035D96E9135DA6ED890D936DA360D
:102EBC004650D9264750DA226F0078FF11F06F0088
:102ECC0078FF12F06F0078FF13F06F0078FF14F0AA
:102EDC00EAEC27F011C01DF012C01EF013C01FF059
:102EEC0014C020F0A5EC14F019C068F11AC069F1F7
:102EFC001BC06AF11CC06BF168C11DF069C11EF0EA
:102F0C006AC11FF06BC120F0B90E406E010E416E0C
:102F1C00D89000019035D96E9135DA6ED890D936AB
:102F2C00DA364050D9264150DA226F0078FF15F07E
:102F3C006F0078FF16F06F0078FF17F06F0078FFC6
:102F4C0018F03CC011F03DC012F03EC013F03FC071
:102F5C0014F0EAEC27F011C019F012C01AF013C0EB
:102F6C001BF014C01CF07EEC12F019C048F01AC013
:102F7C0049F01BC04AF01CC04BF0890E406E010E8C
:102F8C00416ED89000019035D96E9135DA6ED8909B
:102F9C00D936DA364050D9264150DA226F0078FF04
:102FAC0005F06F0078FF06F06F0078FF07F06F00F8
:102FBC0078FF08F048C001F049C002F04AC003F0A5
:102FCC004BC004F01EEC10F001C032F002C033F024
:102FDC0003C034F004C035F069EC1DF032C04CF085
:102FEC0033C04DF04CC001F04DC002F0036A046ACE
:102FFC00000E04EC1AF001C03CF002C03DF003C01E
:10300C003EF004C03FF0120000019251D8A411EF21
:10301C0018F013EF18F041EF18F0230EDEEC1AF055
:10302C0019C05AF01AC05BF05C6A5D6A0101EF517D
:10303C00546EF051556E566A576A5A50545C5B5038
:10304C0055585C5056585750800A586E5D50800A3F
:10305C005858D8B034EF18F036EF18F03CEF18F0A1
:10306C00EFC15AF0F0C15BF05C6A5D6A010E0001C1
:10307C00926F43EF18F0000E926FD8908A35D96E8C
:10308C008B35DA6E000ED926020EDA226F0078FF2D
:10309C0054F06F0074FF55F05450566E5550576EE7
:1030AC00586A596A56505A5C0101646F57505B5804
:1030BC00656F58505C58666F59505D58676F67BFA5
:1030CC0075EF18F067516611651107E1040E645D28
:1030DC00D8B073EF18F075EF18F08FEF18F067AFEA
:1030EC0087EF18F0FD0E645DFF0E6559FF0E6659F3
:1030FC00FF0E6759D8A085EF18F087EF18F08FEF07
:10310C0018F0000E646F000E656F000E666F000EF7
:10311C00676FD89000018A35D96E8B35DA6E000E48
:10312C00D926020EDA226F0078FF54F06F0074FF7C
:10313C0055F05450566E5550576E586A596A565041
:10314C000101605D606F57506159616F5850625951
:10315C00626F59506359636FD89000018A35D96EEC
:10316C008B35DA6E000ED926020EDA226F0078FF4C
:10317C0054F06F0074FF55F00101645154266551F1
:10318C005522D89000018A35D96E8B35DA6E000E37
:10319C00D926020EDA22600053F1DEFF600057F1EF
:1031AC00DDFFD8908A35D96E8B35DA6E000ED926B4
:1031BC00020EDA226F0078FF54F06F0074FF55F0A6
:1031CC00545001016025606F55506121616F000EF4
:1031DC006221626F000E6321636F00018B5109E164
:1031EC00630E8A5DD8A0FDEF18F0FFEF18F005EF25
:1031FC0019F0000E8B6F000E8A6F07EF19F08A4BD7
:10320C008B2B60C150F061C151F062C152F063C1AF
:10321C0053F04EEC23F050C06CF151C06DF16CC109
:10322C0001F06DC102F0A5EC28F012000201DB6F79
:10323C00000E0201E16F000EE06F010EDE6F020165
:10324C00DB5161EC20F00009D8B42FEF19F031EF0D
:10325C0019F025EF19F0580E0101FB6F500EFC6FA1
:10326C00000EFD6FE00EFE6F020EFF6F00EC2BF0F8
:10327C00DE0E0101F56F020EF66F000EF86F010EF7
:10328C00F76F71EC2AF0980E0101FB6F540EFC6F76
:10329C00000EFD6FE20EFE6F020EFF6FF2EC2AF0D5
:1032AC00BBEC2CF023EC29F0E806D8B460EF19F055
:1032BC0062EF19F058EF19F00201E351D8A469EF4D
:1032CC0019F06BEF19F070EF19F0010E0001976F08
:1032DC0073EF19F0000E0001976F230E0201DF6FE0
:1032EC000201DB5161EC20F00009D8B480EF19F039
:1032FC0082EF19F076EF19F0580E0101FB6F500EAA
:10330C00FC6F000EFD6FE00EFE6F020EFF6F00EC07
:10331C002BF0DF0E0101F56F020EF66F000EF86F49
:10332C00010EF76F71EC2AF0980E0101FB6F540E31
:10333C00FC6F000EFD6FE20EFE6F020EFF6FF2ECE3
:10334C002AF0BBEC2CF023EC29F0E806D8B4B1EF52
:10335C0019F0B3EF19F0A9EF19F00201E351D8A459
:10336C00BAEF19F0BCEF19F0C1EF19F0010E000122
:10337C00976FC4EF19F0000E0001976F0201DB513B
:10338C0061EC20F00009D8B4CEEF19F0D0EF19F0B1
:10339C00C4EF19F0DC0E0101F56F020EF66F000E92
:1033AC00F86F020EF76F71EC2AF0BFEC2CF023ECE7
:1033BC0029F0E806D8B4E5EF19F0E7EF19F0DDEFE6
:1033CC0019F00201E351D8A4EEEF19F0F0EF19F067
:1033DC00F5EF19F0010E0001976FF8EF19F0000EE0
:1033EC000001976F0201DC51D76FDD51D96FD7C245
:1033FC00DAF2D9C2D5F2DAC2D6F21200096E09504D
:10340C00D8B40BEF1AF00DEF1AF02FEF1AF004BE30
:10341C0014EF1AF012EF1AF02FEF1AF001C005F0AA
:10342C0002C006F003C007F004C008F0051E061E1B
:10343C00071E081E052A000E06220722082205C0B8
:10344C000BF006C00CF007C00DF008C00EF037EF03
:10345C001AF001C00BF002C00CF003C00DF004C058
:10346C000EF00150021003100410D8A440EF1AF013
:10347C0042EF1AF04CEF1AF0000E016E000E026EC5
:10348C00000E036E000E046EDDEF1AF0960E0A6E3F
:10349C0056EF1AF00A2AD8900E320D320C320B323B
:1034AC00000E0B14056E000E0C14066E000E0D149F
:1034BC00076EFE0E0E14086E05500610071008104D
:1034CC00D8A46BEF1AF06DEF1AF050EF1AF07BEFF7
:1034DC001AF00A2A010E0B26000E0C220D220E22C7
:1034EC00D8900E320D320C320B32000E0B14056ECE
:1034FC00000E0C14066E000E0D14076EFF0E0E144B
:10350C00086E0550061007100810D8A490EF1AF09A
:10351C0092EF1AF06FEF1AF09AEF1AF00A06D890A1
:10352C000B360C360D360E360DBE9FEF1AF0A1EF92
:10353C001AF0A9EF1AF0020E0A60A7EF1AF0A9EF21
:10354C001AF094EF1AF00AB0AEEF1AF0B0EF1AF0CE
:10355C00B1EF1AF00D9ED8900A320AC005F0066A37
:10356C00076A086A05C008F0076A066A056A05500A
:10357C000B1206500C1207500D1208500E12095067
:10358C00D8B4CBEF1AF0CDEF1AF0D5EF1AF004BE89
:10359C00D4EF1AF0D2EF1AF0D5EF1AF00E8E0BC052
:1035AC0001F00CC002F00DC003F00EC004F01200CC
:1035BC001F6E000E256E000E246E010E226E1F5023
:1035CC00B7EC20F00009D8B4EEEF1AF0F0EF1AF0D7
:1035DC00E5EF1AF0D60E076E520E086E000E096E4D
:1035EC00240E0A6E0B6A1CEC2BF0220E016E026A82
:1035FC00000E046E010E036E83EC2AF0880E076E2B
:10360C00560E086E000E096E260E0A6E0B6A0EEC34
:10361C002BF0C7EC2CF0F8EC29F0E806D8B419EF35
:10362C001BF01BEF1BF011EF1BF02750D8A421EF60
:10363C001BF023EF1BF028EF1BF0010E0001976F1E
:10364C002BEF1BF0000E0001976F230E236E1F5003
:10365C00B7EC20F00009D8B436EF1BF038EF1BF0B4
:10366C002DEF1BF0D60E076E520E086E000E096E73
:10367C00240E0A6E0B6A1CEC2BF0230E016E026AF0
:10368C00000E046E010E036E83EC2AF0880E076E9A
:10369C00560E086E000E096E260E0A6E0B6A0EECA4
:1036AC002BF0C7EC2CF0F8EC29F0E806D8B461EF5D
:1036BC001BF063EF1BF059EF1BF02750D8A469EFF8
:1036CC001BF06BEF1BF070EF1BF0010E0001976FFE
:1036DC0073EF1BF0000E0001976F1F50B7EC20F03A
:1036EC000009D8B47CEF1BF07EEF1BF073EF1BF0DE
:1036FC00200E016E026A000E046E020E036E83EC45
:10370C002AF0CBEC2CF0F8EC29F0E806D8B491EFC9
:10371C001BF093EF1BF089EF1BF02750D8A499EF07
:10372C001BF09BEF1BF0A0EF1BF0010E0001976F3D
:10373C00A3EF1BF0000E0001976F20501B6E215061
:10374C001D6E1BC01EF01DC019F01EC01AF0120019
:10375C00D3AEB3EF1BF052EF1CF097EC2BF000093B
:10376C00D8B4BBEF1BF0BDEF1BF0FAEF1BF0CAEFA8
:10377C001BF075EC2BF051EF1CF05BEC2CF051EFC7
:10378C001CF0000E51EF1CF078C0C8F279C0C9F2E1
:10379C0020EE69F002D8DDEF1BF00500FA6EDE506A
:1037AC00FD6EDE50FE6EDE50FF6EFA50120002010E
:1037BC00CC6FCD6BCD51000AD8B4E7EF1BF0C7EF3F
:1037CC001BF0CC51010AD8B4C7EF1BF0030AD8B4D4
:1037DC00BFEF1BF0010AD8B4C3EF1BF0070AD8B433
:1037EC00C7EF1BF0C7EF1BF08CEC2BF00009D8B423
:1037FC0002EF1CF004EF1CF050EF1CF0000189519B
:10380C00030B0009D8B40DEF1CF00FEF1CF021EFE7
:10381C001CF0010E0201CC6F00018951030B020157
:10382C00CD6FCC51CD5F000189510201CD19FC0B3C
:10383C00CD190001896F60000FF2D9FF600013F2FF
:10384C00DAFFDF500201CE6F0001834B842B85071A
:10385C00D8A0860785518611D8A437EF1CF039EF14
:10386C001CF042EF1CF041EC22F00201CC6FCC5169
:10387C00D06FD16B47EF1CF0000E0201D16F030E1D
:10388C00D06FD0C2CFF2CE5184EC2CF00201CF51CC
:10389C0051EF1CF0030E1200E4EC2BF00009D8B42D
:1038AC005AEF1CF05CEF1CF098EF1CF069EF1CF069
:1038BC0077EC2CF0E4EF1CF01FEC2DF0E4EF1CF097
:1038CC00000EE4EF1CF078C00CF079C00DF020EE87
:1038DC0069F002D87CEF1CF00500FA6EDE50FD6E2C
:1038EC00DE50FE6EDE50FF6EFA501200106E116A42
:1038FC001150000AD8B485EF1CF066EF1CF0105084
:10390C00010AD8B466EF1CF0030AD8B45EEF1CF0C1
:10391C00010AD8B462EF1CF0070AD8B466EF1CF0A9
:10392C0066EF1CF0D9EC2BF00009D8B4A0EF1CF01A
:10393C00A2EF1CF0E3EF1CF000018951030B00090E
:10394C00D8B4ABEF1CF0ADEF1CF0B9EF1CF0010ECE
:10395C00106E8951030B116E1050115E89511118A4
:10396C00FC0B1118896F60000FF2D9FF600013F285
:10397C00DAFFDF50126E834B842B8507D8A08607A5
:10398C0085518611D8A4CDEF1CF0CFEF1CF0D7EFEA
:10399C001CF0CDEC23F0106E1050146E156ADBEF9A
:1039AC001CF0000E156E030E146E14C013F01250A2
:1039BC00ACEC2CF01350E4EF1CF0030E12003D5055
:1039CC000001D45D3E50D559D8B0EFEF1CF0F1EFAB
:1039DC001CF0F5EF1CF03C683D6868EF1DF0000E24
:1039EC00456E000E466E000E476E000E486E000EC1
:1039FC004A6E000E496E22EF1DF04950020D3C50EC
:103A0C00F324D96EDA6A6F0078FF3FF06F0074FF11
:103A1C0040F03FC041F040C042F0000E42BEFF0EED
:103A2C00436E446E41504526425046224350472235
:103A3C0044504822494A4A2A3D50495C4A50800A1F
:103A4C003F6E3E50800A3F58D8A02FEF1DF031EF4B
:103A5C001DF003EF1DF03DC001F03EC002F0000E62
:103A6C0002BEFF0E036E046E010E04EC1AF001C0D0
:103A7C001DF002C01EF003C01FF004C020F045C0B2
:103A8C0001F046C002F047C003F048C004F0010E3C
:103A9C0004EC1AF001C019F002C01AF003C01BF0BC
:103AAC0004C01CF0A5EC14F019C032F01AC033F0AD
:103ABC001BC034F01CC035F069EC1DF032C03CF07A
:103ACC0033C03DF01200343435343B6E3B50D8A437
:103ADC0072EF1DF074EF1DF07EEF1DF0000E326ED4
:103AEC00000E336E000E346E000E356EEBEF1DF0D3
:103AFC0032C036F033C037F034C038F035C039F04E
:103B0C00200E8EEF1DF0D8903932383237323632E3
:103B1C00E82E89EF1DF036503A6E348EFF0E3216B9
:103B2C00FF0E3316FF0E3416000E3516960E3B5E46
:103B3C003BBEA5EF1DF0A3EF1DF0BBEF1DF03B50FE
:103B4C00800A970FD8B0ADEF1DF0AFEF1DF0B1EFBD
:103B5C001DF074EF1DF0D8903532343233323232DE
:103B6C003B3EB1EF1DF0D3EF1DF01F0E3B64C1EFD8
:103B7C001DF0C3EF1DF0CBEF1DF074EF1DF0D890CE
:103B8C0032363336343635363B063B50D8A4D1EF7B
:103B9C001DF0D3EF1DF0C5EF1DF03A50D8B4D9EF9E
:103BAC001DF0DBEF1DF0E3EF1DF0351E341E331E50
:103BBC00326C000E33223422352232C032F033C044
:103BCC0033F034C034F035C035F01200000E01145F
:103BDC00096E000E02140A6E800E03140B6E7F0E1B
:103BEC0004140C6E09500A100B100C10D8A401EF21
:103BFC001EF003EF1EF00BEF1EF0000E016E000E18
:103C0C00026E000E036E000E046E000E0514096E9B
:103C1C00000E06140A6E800E07140B6E7F0E08142D
:103C2C000C6E09500A100B100C10D8A420EF1EF0CB
:103C3C0022EF1EF02AEF1EF0000E056E000E066E2F
:103C4C00000E076E000E086E04AE2FEF1EF031EF63
:103C5C001EF03AEF1EF0016C021ED8B0022A031EB1
:103C6C00D8B0032A800E045608AE3FEF1EF041EF89
:103C7C001EF04AEF1EF0056C061ED8B0062A071E71
:103C8C00D8B0072A800E0856000E011A000E021A30
:103C9C00000E031A800E041A000E051A000E061AE6
:103CAC00000E071A800E081A0550015C06500258C7
:103CBC000750035808500458D8B067EF1EF069EF4E
:103CCC001EF06CEF1EF0D8906DEF1EF0D880120035
:103CDC000EEC2AF0E60E0101F56F4D0EF66F000E9C
:103CEC00F76F4DEC2CF0D28E000E0101F26F030E2B
:103CFC00F16F000E7B6F000E7A6F000E796F000E65
:103D0C00786F000E756F000E746F000E6F6F000EE3
:103D1C006E6F020EF06F6A0EEF6F000E0001966F61
:103D2C00000ED66F010E0101F46F000E0001956FAD
:103D3C00000E946F000E0101846F000E836FFE0E57
:103D4C00856F630E866F830E876F8869010EF36F24
:103D5C00000E826F000E0001926F0B0E0201E96FD4
:103D6C00260EE86F5D0EE82EFED7E82FFCD7E92F64
:103D7C00FAD700D0CAEF1EF0AFEC1FF0CAEF1EF05E
:103D8C00C3EC27F0CAEF1EF0000195510201E86F59
:103D9C00E96BE951000AD8B4D6EF1EF0CAEF1EF059
:103DAC00E851000AD8B4C2EF1EF0010AD8B4C6EF2D
:103DBC001EF0CAEF1EF00DEF00F020EE28F110EE11
:103DCC009AF0270E6F006FFFE3FFE806FBE2000E90
:103DDC000001CB6F000ECA6F000ECD6F000ECC6FC2
:103DEC00000EC36F140EC26F000EC96F000EC86FA9
:103DFC0033EF1FF05BEC21F001C0C6F002C0C7F03E
:103E0C000001CA51020DF3509A0FD96EDA6A6000A4
:103E1C001BF3DEFF60001FF3DDFF010ECA25016EF0
:103E2C00000ECB21026ED4C003F0D5C004F0A9EC77
:103E3C0025F001C0CAF002C0CBF00001D451CC5D1A
:103E4C00D551CD59D8B02DEF1FF02FEF1FF031EF1A
:103E5C001FF0CC4BCD2BC84BC92BC251C85DC951DF
:103E6C00800A4D6EC351800A4D58D8A040EF1FF008
:103E7C0042EF1FF000EF1FF09A0E3C6ECCC03DF0ED
:103E8C00CDC03EF0E5EC1CF03CC0C4F03DC0C5F02C
:103E9C00C4C04BF0C5C04CF01200D3AE58EF1FF0AD
:103EAC00AAEF21F0A2EC2BF00009D8A460EF1FF0D0
:103EBC0062EF1FF065EF1FF0040EAEEF1FF0000174
:103ECC008951030B0009D8B46EEF1FF070EF1FF08F
:103EDC0082EF1FF0010E0201CE6F00018951030B1E
:103EEC000201CF6FCE51CF5F000189510201CF1972
:103EFC00FC0BCF190001896F8507D8A08607855167
:103F0C008611D8B48CEF1FF08EEF1FF09CEF1FF0D2
:103F1C00EBEC2CF060000FF2D9FF600013F2DAFF2B
:103F2C00DF6E0001834B842B62EF1FF009EC20F055
:103F3C000201D06FEBEC2CF060000FF2D9FF6000A7
:103F4C0013F2DAFFDF6E0001834B842B0201D05198
:103F5C001200BC80CAA2B5EF1FF0B7EF1FF003EF41
:103F6C0020F00101F405D8A4BEEF1FF0C0EF1FF044
:103F7C00C4EF1FF0BB8ABA84000EF46F0001D605A3
:103F8C00D8A4CBEF1FF0CDEF1FF007EF20F0000E01
:103F9C00D66F0B0E0201DD6F260EDC6F5D0EE82E68
:103FAC00FED7DC2FFCD7DD2FFAD700D0BA84050E54
:103FBC000201DD6F0F0EDC6FF10EE82EFED7DC2F49
:103FCC00FCD7DD2FFAD7FE0E0101856F630E866FCD
:103FDC00830E876F8869850E0201D56F010ED66F2F
:103FEC00000ED86F040ED76F610ECAEC22F0C80E0B
:103FFC0000D0E82EFDD707EF20F0010E0101F46F81
:10400C00BA94CC501200D3AE0EEF20F009EF21F091
:10401C000001898932EF20F0EEEC2CF0080E60EFF5
:10402C0020F0EEEC2CF0070E60EF20F0000185295B
:10403C008AEC2CF0040E60EF20F0070E00018719BB
:10404C00D8B42BEF20F02DEF20F02FEF20F0F1EC77
:10405C002CF00F0E60EF20F072C0C8F273C0C9F2E2
:10406C0002D843EF20F00500FA6E6051FD6E6151ED
:10407C00FE6E6251FF6EFA5012000201CC6FCD6BD6
:10408C00CD51000AD8B44DEF20F023EF20F0CC51E5
:10409C00010AD8B423EF20F0030AD8B417EF20F0AC
:1040AC00010AD8B412EF20F0070AD8B41CEF20F0A4
:1040BC0023EF20F012000101F56F010E0101F66FE4
:1040CC00000189B76CEF20F06EEF20F0B4EF20F018
:1040DC00F5C182F089958987FC0E89170F0E876FC1
:1040EC00010E816FF40E806F8989D20E606F580EAD
:1040FC00616F000E626F000E726F000E736FD20E46
:10410C00636F580E646F000E656F000E746F000EB7
:10411C00756FD20E666F580E676F000E686F000ECB
:10412C00766F000E776FD20E696F580E6A6F000EA5
:10413C006B6F000E786F000E796FC40E6C6F580E9B
:10414C006D6F000E6E6F000E7A6F000E7B6FC3ECFE
:10415C002CF0B3EC29F0000E0101F66F0101F651C1
:10416C001200016E010E026E000189B7C0EF20F043
:10417C00C2EF20F007EF21F001C082F0899589870A
:10418C00FC0E89170F0E876F010E816FF40E806F76
:10419C008989460E606F5A0E616F000E626F000EB9
:1041AC00726F000E736F460E636F5A0E646F000EC3
:1041BC00656F000E746F000E756F460E666F5A0EAB
:1041CC00676F000E686F000E766F000E776F460EED
:1041DC00696F5A0E6A6F000E6B6F000E786F000ECF
:1041EC00796F420E6C6F5A0E6D6F000E6E6F000E73
:1041FC007A6F000E7B6FDBEC2CF0CAEC29F0000E12
:10420C00026E02501200000189892DEF21F00CEC96
:10421C002DF0080E5AEF21F00CEC2DF0070E5AEF92
:10422C0021F000018529B1EC2CF0040E5AEF21F09D
:10423C00070E00018719D8B426EF21F028EF21F0E2
:10424C002AEF21F00FEC2DF00F0E5AEF21F072C077
:10425C000CF073C00DF002D83EEF21F00500FA6EA1
:10426C006051FD6E6151FE6E6251FF6EFA5012008C
:10427C00106E116A1150000AD8B447EF21F01EEFEE
:10428C0021F01050010AD8B41EEF21F0030AD8B463
:10429C0012EF21F0010AD8B40DEF21F0070AD8B4BF
:1042AC0017EF21F01EEF21F01200000E086E000E29
:1042BC00056E000E0A6E000E096E000E0C6E000EDE
:1042CC000B6ECAA06CEF21F06EEF21F074EF21F0B1
:1042DC00082A0B0EE82EFED777EF21F0052A6FEF98
:1042EC0021F00B2A630E0B647EEF21F080EF21F09E
:1042FC0067EF21F0C80E00D0E82EFDD70850092436
:10430C00096E000E0A200A6E000E086E000E056E75
:10431C000C2A030E0C6495EF21F097EF21F065EF5A
:10432C0021F009C003F00AC004F0D8900432033223
:10433C00D8900432033203C006F004C007F006C064
:10434C0001F007C002F01200EFEC2BF00009D8A42A
:10435C00B2EF21F0B4EF21F0B7EF21F0040EF8EF3B
:10436C0021F000018951030B0009D8B4C0EF21F0F2
:10437C00C2EF21F0CEEF21F0010E016E8951030B3B
:10438C00026E0150025E89510218FC0B0218896FF3
:10439C008507D8A0860785518611D8B4D8EF21F0AF
:1043AC00DAEF21F0E8EF21F009EC2DF060000FF2CC
:1043BC00D9FF600013F2DAFFDF6E0001834B842B10
:1043CC00B4EF21F009EC21F0036E09EC2DF0600044
:1043DC000FF2D9FF600013F2DAFFDF6E0001834B9E
:1043EC00842B035012006F00E8FFCEF06F00ECFF3F
:1043FC00CFF06F00D8FFD0F06F00DCFFD1F06F0072
:10440C00E0FFD2F06F00D4FFD3F0390193AF11EF7E
:10441C0022F013EF22F01EEF22F0A3AF18EF22F0E0
:10442C001AEF22F01EEF22F03BEC29F02EEF22F0D7
:10443C0094A523EF22F025EF22F02EEF22F0A4A575
:10444C002AEF22F02CEF22F02EEF22F0A7EC2CF02A
:10445C0060004FF3F5FF60004BF3F8FF600047F38B
:10446C00F7FF600043F3F6FF60003FF3FBFF6000D3
:10447C003BF3FAFF1100D3AE46EF22F0CDEF23F061
:10448C00000189895BEF22F0EEEC2CF0070E85EF32
:10449C0022F0000185298AEC2CF0030E85EF22F026
:1044AC00F1EC2CF00A0E85EF22F072C0C8F273C04A
:1044BC00C9F202D86CEF22F00500FA6E6051FD6E65
:1044CC006151FE6E6251FF6EFA5012000201CC6F08
:1044DC00CD6BCD51000AD8B476EF22F056EF22F016
:1044EC00CC51010AD8B456EF22F0030AD8B44AEFE3
:1044FC0022F0060AD8B44FEF22F056EF22F0120049
:10450C00B60EF66E4B0EF76E000EF86E00EE89F1DD
:10451C0010EE60F009006F00D7FFEEFFE550E150A0
:10452C00F9E14A0EF66E5A0EF76E000EF86E09009F
:10453C006F00D4FFD4F009006F00D4FFD5F0090050
:10454C006F00D4FFD6F000EE00F3800EEE6AE806A2
:10455C00FDE100EE00F2C80EEE6AE806FDE100EEA9
:10456C0000F1890EEE6AE806FDE100EE60F03A0E0D
:10457C00EE6AE806FDE1080ED56E000ED66E000E52
:10458C00D76E00016EEF1EF00201D96F0201D951F6
:10459C0061EC20F00009D8B4D6EF22F0D8EF22F06D
:1045AC00CCEF22F0D5C2F5F1D6C2F6F1D7C2F7F1B5
:1045BC00D8C2F8F171EC2AF0980E0101FB6F540E81
:1045CC00FC6F000EFD6FDA0EFE6F020EFF6FF2EC49
:1045DC002AF0BBEC2CF023EC29F0E806D8B4F9EF68
:1045EC0022F0FBEF22F0F1EF22F00201DB51D8A414
:1045FC0002EF23F004EF23F009EF23F0010E00018A
:10460C00996F0CEF23F0000E0001996F1200D3AEDE
:10461C0012EF23F0FDEF24F0C3EC2CF0020E00019E
:10462C00886F25EF23F075EC2BF04DEF23F05BEC4E
:10463C002CF04DEF23F037EC2BF04DEF23F074C042
:10464C00C8F275C0C9F220EE63F002D838EF23F03F
:10465C000500FA6EDE50FD6EDE50FE6EDE50FF6E13
:10466C00FA5012000201CC6FCD6BCD51000AD8B4B8
:10467C0042EF23F021EF23F0CC51020AD8B419EF0A
:10468C0023F0010AD8B41DEF23F021EF23F0120020
:10469C0050C09AF051C09BF052C09CF053C09DF09A
:1046AC009AC001F09BC002F09CC003F09DC004F0C6
:1046BC00000E04EC1AF001C09EF002C09FF003C083
:1046CC00A0F004C0A1F09EC03CF09FC03DF0A0C083
:1046DC003EF0A1C03FF072EC16F03CC0A2F03DC021
:1046EC00A3F03EC0A4F03FC0A5F0A2C032F0A3C01E
:1046FC0033F0A4C034F0A5C035F069EC1DF032C025
:10470C00A6F033C0A7F0A6C050F0A7C051F012001D
:10471C000101FA6F0101F551F611F711D8B499EFB7
:10472C0023F09BEF23F0B8EF23F0FA51030DF35075
:10473C00600FD96EDA6A6000D7F7DEFF6000DBF736
:10474C00DEFF6000DFF7DEFFFA51020DF350720F4F
:10475C00D96EDA6A6000E3F7DEFF6000E7F7DDFF91
:10476C00CCEF23F0FA51030DF350600FD96EDA6AD7
:10477C00D20EDE6E580EDE6E000EDE6EFA51020D9B
:10478C00F350720FD96EDA6ADE6ADD6A120000012C
:10479C008989E2EF23F00CEC2DF0070E0BEF24F0DF
:1047AC0000018529B1EC2CF0030E0BEF24F00FEC7B
:1047BC002DF00A0E0BEF24F072C00CF073C00DF04C
:1047CC0002D8F3EF23F00500FA6E6051FD6E6151D3
:1047DC00FE6E6251FF6EFA501200106E116A11508B
:1047EC00000AD8B4FCEF23F0DDEF23F01050010ADF
:1047FC00D8B4DDEF23F0030AD8B4D1EF23F0060AC6
:10480C00D8B4D6EF23F0DDEF23F01200D3AE11EFC6
:10481C0024F072EF25F0FC0E00018917020E886F50
:10482C00899520EF24F054EC2CF048EF24F00F0E77
:10483C0048EF24F076C0C8F277C0C9F220EE66F0DB
:10484C0002D833EF24F00500FA6EDE50FD6EDE5018
:10485C00FE6EDE50FF6EFA5012000201CC6FCD6B73
:10486C00CD51000AD8B43DEF24F01DEF24F0CC510B
:10487C00020AD8B419EF24F0010AD8B419EF24F0C5
:10488C001DEF24F01200066E015002100310D8B474
:10489C0052EF24F054EF24F071EF24F00650030D86
:1048AC00F350600FD96EDA6A600007F0DEFF60002B
:1048BC000BF0DEFF60000FF0DEFF0650020DF35030
:1048CC00720FD96EDA6A600013F0DEFF600017F029
:1048DC00DDFF85EF24F00650030DF350600FD96E09
:1048EC00DA6A460EDE6E5A0EDE6E000EDE6E065074
:1048FC00020DF350720FD96EDA6ADE6ADD6A1200AD
:10490C00000EBA6E000EBB6E000EBC6EFB0EC26EBD
:10491C00DB0EC36E860EC46E670E3A01606FEF0E2F
:10492C00506FFC0E406F000E816F000E516F000E29
:10493C00416F000E616F000E5A6F000E5B6F000E20
:10494C006A6F000E6B6F000E426F000E526F180EE6
:10495C00626F436953696369446954696469080EF9
:10496C00846F140EE26F210E136F220E146F0D0E56
:10497C00166F130EE16F120020EC27F00001895125
:10498C00030B0009D8B4CDEF24F0CFEF24F0DCEF0B
:10499C0024F097EC2BF00009D8B4D7EF24F0D9EF22
:1049AC0024F0DCEF24F0100E0001876F000187511A
:1049BC00030DF350010F0201D26F60004BFBF6FFA9
:1049CC00200EF76E000EF86E02D8FAEF24F00500F8
:1049DC00FA6E0900F550FD6E0900F550FE6E0900E7
:1049EC00F550FF6EFA5012000001876F1200DBECDD
:1049FC002CF0020E0001886F10EF25F077EC2CF0F4
:104A0C0037EF25F01FEC2DF037EF25F03EEC2CF0B6
:104A1C0037EF25F074C00CF075C00DF020EE63F08C
:104A2C0002D823EF25F00500FA6EDE50FD6EDE5045
:104A3C00FE6EDE50FF6EFA501200106E116A1150AD
:104A4C00000AD8B42CEF25F00CEF25F01050020A18
:104A5C00D8B404EF25F0010AD8B408EF25F00CEF18
:104A6C0025F0120072EC27F000018951030B0009AC
:104A7C00D8B443EF25F045EF25F052EF25F0E4ECE8
:104A8C002BF00009D8B44DEF25F04FEF25F052EF85
:104A9C0025F0100E0001876F00018751030DF350B4
:104AAC00010F166E60005BF0F6FF200EF76E000E25
:104ABC00F86E02D86FEF25F00500FA6E0900F5507C
:104ACC00FD6E0900F550FE6E0900F550FF6EFA50B0
:104ADC0012000001876F1200FC0E00018917020EF4
:104AEC00886F899581EF25F01DEC2DF0A8EF25F04E
:104AFC000F0EA8EF25F076C00CF077C00DF020EE6D
:104B0C0066F002D894EF25F00500FA6EDE50FD6ECB
:104B1C00DE50FE6EDE50FF6EFA501200106E116AFF
:104B2C001150000AD8B49DEF25F07EEF25F01050FF
:104B3C00020AD8B47AEF25F0010AD8B47AEF25F03E
:104B4C007EEF25F0120003500410D8B4B0EF25F01E
:104B5C00B2EF25F0D6EF25F0010E056EBAEF25F079
:104B6C00D89003360436052A04AEBFEF25F0C1EF0A
:104B7C0025F0B6EF25F00350015C04500258D8A084
:104B8C00CAEF25F0CCEF25F0D0EF25F00350015EF5
:104B9C000450025AD89004320332052EC1EF25F08E
:104BAC0001C001F002C002F01200000090410000B0
:104BBC000842000018420000484200007842000001
:104BCC0094420000074300004A4300808A430000DF
:104BDC00A8430080B3430000C44300004844008055
:104BEC0054450020804500C0C1450020004600D03F
:104BFC001D4600989E460018F64600E02B470028FC
:104C0C00524700006147006871470201D36F010EE3
:104C1C000201D46F000189B516EF26F018EF26F0CB
:104C2C0037EF26F08985000E0201D46F0001855103
:104C3C008AEC2CF00201D351D8B427EF26F029EFDF
:104C4C0026F030EF26F0040E0001876F89EC28F077
:104C5C0035EF26F0030E0001876FA6EC2AF0B6ECB8
:104C6C002AF00201D4511200D3AE3FEF26F09BEF95
:104C7C0027F0020120EE02F0C851D926C951DA22E0
:104C8C006F0078FFF5F16F0074FFF6F1600023FB05
:104C9C00D9FF600027FBDAFF6F0078FFF7F16F0098
:104CAC0074FFF8F171EC2AF0000E0101FB6F000E9D
:104CBC00FC6F000EFD6F000EFE6F000EFF6F00EC20
:104CCC002BF0020E1200000E3E01DE6F000EDF6FA5
:104CDC00000EE06F000EE16F000EE46F000EE56F4A
:104CEC00000EEA6F0A0EEC6F000EF16F8C0EF36F74
:104CFC00000EF46F000EF56F000EF66F000EF76FDE
:104D0C00000EF96F020EFA6F000EFB6F000EFC6FB7
:104D1C00000EFD6F000EFE6F010EFF6F840EF86F1C
:104D2C0012003901A3A19DEF26F09FEF26F0A1EF11
:104D3C0026F0C4EF26F0A2AFA6EF26F0A8EF26F0DF
:104D4C00AAEF26F0C4EF26F03D0179A5B0EF26F0CE
:104D5C00B2EF26F0B4EF26F0C4EF26F079AFB9EF3E
:104D6C0026F0BBEF26F0BDEF26F0C4EF26F076A9B7
:104D7C00C2EF26F0C4EF26F097EF26F012003901AF
:104D8C00A3A1CBEF26F0CDEF26F0CFEF26F0F2EF7C
:104D9C0026F0A2AFD4EF26F0D6EF26F0D8EF26F00F
:104DAC00F2EF26F03D0179A5DEEF26F0E0EF26F0DC
:104DBC00E2EF26F0F2EF26F079AFE7EF26F0E9EF1D
:104DCC0026F0EBEF26F0F2EF26F076A9F0EF26F0C6
:104DDC00F2EF26F0C5EF26F01200CCBEF8EF26F06D
:104DEC00FAEF26F0FEEF26F00AEC18F014EF27F09D
:104DFC00E3EC1EF04BC078F14CC079F178C15EF059
:104E0C0079C15FF0D8905E365F36D8905E365F36EB
:104E1C005EC001F05FC002F0A5EC28F00001970520
:104E2C00D8A41BEF27F01DEF27F01FEF27F0010E82
:104E3C00936F1200C3EC2BF00009D8B428EF27F0C5
:104E4C002AEF27F02EEF27F0FAEC2CF048EF27F0A2
:104E5C00ADEC2BF00009D8B436EF27F038EF27F083
:104E6C003CEF27F0F4EC2CF048EF27F0B8EC2BF0EB
:104E7C000009D8B444EF27F046EF27F048EF27F0AD
:104E8C00F7EC2CF01200176E010E186E000189B5AC
:104E9C0052EF27F054EF27F070EF27F08985000EC2
:104EAC00186E8551B1EC2CF01750D8B460EF27F088
:104EBC0062EF27F069EF27F0040E0001876FE1EC39
:104ECC0029F06EEF27F0030E0001876FCEEC2BF06C
:104EDC00D4EC2AF01850120010EC2CF00009D8B4C5
:104EEC007AEF27F07CEF27F080EF27F018EC2DF00D
:104EFC009AEF27F0FAEC2BF00009D8B488EF27F0E2
:104F0C008AEF27F08EEF27F012EC2DF09AEF27F0B6
:104F1C0005EC2CF00009D8B496EF27F098EF27F0A9
:104F2C009AEF27F015EC2DF0120020EE02F00C5049
:104F3C00D9260D50DA226F0078FF01F06F0074FF54
:104F4C0002F0600033F0D9FF600037F0DAFF6F0039
:104F5C0078FF03F06F0074FF04F083EC2AF0000E6E
:104F6C00076E000E086E000E096E000E0A6E000E23
:104F7C000B6E1CEC2BF0020E1200000E0201E76F00
:104F8C00000EE66F020E0201E56F040EE46FBA0E1E
:104F9C00E82EFED7E42FFCD7E52FFAD70000230E1E
:104FAC001CEC19F000019705D8A4DFEF27F0E1EF16
:104FBC0027F0E5EF27F0010E936FE7EF27F0000ED7
:104FCC00936F000E956F1200000E151A000E161A34
:104FDC00000E171A800E181A11C001F012C002F040
:104FEC0013C003F014C004F015C005F016C006F091
:104FFC0017C007F018C008F01EEC10F001C011F03B
:10500C0002C012F003C013F004C014F01200D3AEAF
:10501C0012EF28F053EF29F0C8C2F5F1C9C2F6F12E
:10502C00000E0101F86F010EF76F71EC2AF0000E03
:10503C000101FB6F000EFC6F000EFD6F000EFE6F8A
:10504C00000EFF6F00EC2BF0040E1200D3AE31EF0C
:10505C0028F06BEF29F0C8C2F5F1C9C2F6F1000EC9
:10506C000101F86F020EF76F71EC2AF0000E0101CE
:10507C00FB6F000EFC6F000EFD6F000EFE6F000E3E
:10508C00FF6F00EC2BF0020E1200D3AE50EF28F0A5
:10509C0083EF29F0C8C2F5F1C9C2F6F1000E010187
:1050AC00F86F010EF76F71EC2AF0000E0101FB6F27
:1050BC00000EFC6F000EFD6F000EFE6F000EFF6FFA
:1050CC0000EC2BF0020E1200D3AE6FEF28F09BEF2A
:1050DC0029F0C8C2F5F1C9C2F6F1000E0101F86F52
:1050EC00020EF76F71EC2AF0000E0101FB6F000E3F
:1050FC00FC6F000EFD6F000EFE6F000EFF6F00ECDC
:10510C002BF0040E1200D3AE8EEF28F0E1EF29F055
:10511C0000018951FC0B0209896F85058611D8A401
:10512C009AEF28F09CEF28F09EEF28F009EC20F085
:10513C00D8800001823584EC2CF0040E120001C0E2
:10514C0003F002C004F0D89004320332D890043239
:10515C00033203506D6E01C003F0030E0316060EEE
:10516C00046ED8900336042EB7EF28F003506C6E03
:10517C001200010EAE6E000EAD6E000EAF6E610E23
:10518C00AB6E000EAA6E3901A49594854E0E0101EA
:10519C00F56F5A0EF66F000EF76F46EC2CF0E00E22
:1051AC00AC6E1200D3AEDDEF28F038EF2AF0E2EC53
:1051BC002CF0DFEC2CF00009D8B4E7EF28F0E9EF85
:1051CC0028F0EFEF28F0000E8AEC2CF0000E84ECA7
:1051DC002CF0000E12000101EC51ED11EE11D8B4BF
:1051EC00FAEF28F0FCEF28F009EF29F002D809EFCC
:1051FC0029F00500FA6EEC51FD6EED51FE6EEE518C
:10520C00FF6EFA50120012000101E951EA11EB1184
:10521C00D8B413EF29F015EF29F022EF29F002D8BA
:10522C0022EF29F00500FA6EE951FD6EEA51FE6E8F
:10523C00EB51FF6EFA5012001200010E0101F56FD6
:10524C00000189B52CEF29F02EEF29F038EF29F069
:10525C0089978269C3EC2CF0C5EC2AF090EC2CF009
:10526C0088C0F5F10101F55112003901A39F01012C
:10527C00804B812B815109E1C80E805DD8A049EF8C
:10528C0029F04BEF29F052EF29F00AEC29F0000E2F
:10529C000101816F000E806F12000CC001F00DC077
:1052AC0002F0000E046E010E036E83EC2AF0000E69
:1052BC00076E000E086E000E096E000E0A6E000ED0
:1052CC000B6E1CEC2BF0040E12000CC001F00DC088
:1052DC0002F0000E046E020E036E83EC2AF0000E38
:1052EC00076E000E086E000E096E000E0A6E000EA0
:1052FC000B6E1CEC2BF0020E12000CC001F00DC05A
:10530C0002F0000E046E010E036E83EC2AF0000E08
:10531C00076E000E086E000E096E000E0A6E000E6F
:10532C000B6E1CEC2BF0020E12000CC001F00DC029
:10533C0002F0000E046E020E036E83EC2AF0000ED7
:10534C00076E000E086E000E096E000E0A6E000E3F
:10535C000B6E1CEC2BF0040E12003D0173BFB9EF69
:10536C0029F0BBEF29F0C9EF29F0000E796F000E80
:10537C007A6F000E766F6C69510E3A016A6F510E9E
:10538C006B6F3D01738F12003D0173BFD0EF29F09D
:10539C00D2EF29F0E0EF29F0000E796F000E7A6F52
:1053AC00000E766F6C69510E3A016A6F510E6B6F7D
:1053BC003D01738F120000018951FC0B0209896FAA
:1053CC0085058611D8A4EDEF29F0EFEF29F0F1EF68
:1053DC0029F009EC21F0D88000018235ACEC2CF0DE
:1053EC00040E1200010E016E000189B500EF2AF0C7
:1053FC0002EF2AF00CEF2AF089978269DBEC2CF093
:10540C00E3EC2AF09CEC2CF088C001F00150120067
:10541C001BEC2DF05FEC2AF095EC2AF086EC24F0D6
:10542C005DEC2BF07EEC2CF069EC26F051EC2BF0C3
:10543C00BFEC28F023EC2AF01200410EB96E180EC6
:10544C00B76E000EB66E3901A39F938F500E0101FB
:10545C00F56F5A0EF66F000EF76F4DEC2CF0890EAF
:10546C00B86E120000EC2DF0FDEC2CF00009D8B455
:10547C0042EF2AF044EF2AF04AEF2AF0000EB1EC8A
:10548C002CF0000EACEC2CF0000E1200D3AE51EF51
:10549C002AF044EF2BF0C8C2CAF2C9C2CBF2020107
:1054AC0020EE01F0CA51D926CB51DA22DF6A010E67
:1054BC001200000E3901C06F000EC16F000EC26FDA
:1054CC00000EC36F000EC46F000EC56F000EC66FCA
:1054DC00000EC76F1200000189A977EF2AF079EF4F
:1054EC002AF082EF2AF0F5C183F0F6C184F0F7C1FF
:1054FC0085F0F8C186F089991200000189A989EF1D
:10550C002AF08BEF2AF094EF2AF001C083F002C04E
:10551C0084F003C085F004C086F089991200040E53
:10552C003D01736F800E746F180E756F030E7B6FD9
:10553C00000E796F000E7A6F000E766F6C69120098
:10554C00D3AEABEF2AF0CEEF2BF000018951FC0B60
:10555C000209896F8251822584EC2CF0030E120013
:10556C00BCEF2AF097EC26F0C2EC24F0000189B5D0
:10557C00C2EF2AF0C4EF2AF0B8EF2AF0120039017A
:10558C0093939395929F93913D017A917A957A9FFB
:10559C007A9D7A937693769576911200DAEF2AF0CB
:1055AC00C5EC26F038EC25F0000189B5E0EF2AF0C7
:1055BC00E2EF2AF0D6EF2AF012003901939393957B
:1055CC00929F93913D017A917A957A9F7A9D7A93E5
:1055DC007693769576911200FBC1F5F1FCC1F6F14C
:1055EC00FDC1F7F1FEC1F8F1FFC1F9F1020E8EEC2D
:1055FC0023F01200FBC1F5F1FCC1F6F1FDC1F7F18E
:10560C00FEC1F8F1FFC1F9F1000E8EEC23F012008F
:10561C0007C001F008C002F009C003F00AC004F092
:10562C000BC005F0020E49EC24F0120007C001F08B
:10563C0008C002F009C003F00AC004F00BC005F06A
:10564C00000E49EC24F01200D3AE2FEF2BF036EF06
:10565C002CF0A2EC2CF000018995020E886F0F0E35
:10566C001200D3AE3CEF2BF03EEF2CF0A2EC2CF062
:10567C0000018995000E886F0F0E12000CC00EF001
:10568C000DC00FF020EE01F00E50D9260F50DA228B
:10569C00DF6A010E1200800E6E6E300E6D6E400EC3
:1056AC006C6E3F015F51FC0B01095F6F1200630EC2
:1056BC003901D96F000EDB6F000EDD6F060EDF6F48
:1056CC00000EDE6F1200D3AE6EEF2BF070EF2CF0ED
:1056DC00E5EC2CF0E2EC2CF081EC2BF01200D3AECC
:1056EC007AEF2BF077EF2CF0000185518AEC2CF03F
:1056FC0089EC28F01200D3AE86EF2BF096EF2CF04D
:10570C0000018995000E886F0F0E12003D0178BBC9
:10571C0092EF2BF095EF2BF0010E96EF2BF0000E85
:10572C0012003D0174BB9DEF2BF0A0EF2BF0010E8E
:10573C00A1EF2BF0000E12003D0178B1A8EF2BF079
:10574C00ABEF2BF0010EACEF2BF0000E12003D0175
:10575C0079B5B3EF2BF0B6EF2BF0010EB7EF2BF0C2
:10576C00000E12003D0176B9BEEF2BF0C1EF2BF00D
:10577C00010EC2EF2BF0000E12003D0179BFC9EFF4
:10578C002BF0CCEF2BF0010ECDEF2BF0000E120016
:10579C0000018951FC0B0209896F82518225ACEC06
:1057AC002CF0030E12003D0178BBDFEF2BF0E2EF83
:1057BC002BF0010EE3EF2BF0000E12003D0174BB39
:1057CC00EAEF2BF0EDEF2BF0010EEEEF2BF0000ECD
:1057DC0012003D0178B1F5EF2BF0F8EF2BF0010E34
:1057EC00F9EF2BF0000E12003D0179B500EF2CF013
:1057FC0003EF2CF0010E04EF2CF0000E12003D0113
:10580C0076B90BEF2CF00EEF2CF0010E0FEF2CF005
:10581C00000E12003D0179BF16EF2CF019EF2CF0A1
:10582C00010E1AEF2CF0000E1200D3AE20EF2CF06C
:10583C00CFEF2CF0E5EC2CF0090E1200D3AE29EFD3
:10584C002CF0D3EF2CF0E8EC2CF0040E1200D3AEBD
:10585C0032EF2CF0D7EF2CF0E8EC2CF0030E12000A
:10586C00B6EC2CF000018995020E886F0F0E120019
:10587C00B6EC2CF000018995000E886F0F0E12000B
:10588C00F5C1ECF1F6C1EDF1F7C1EEF11200F5C185
:10589C00E9F1F6C1EAF1F7C1EBF11200D3AE59EF21
:1058AC002CF01DEF2DF0010E1200D3AE60EF2CF09A
:1058BC001FEF2DF0020E1200D3AE67EF2CF021EF8C
:1058CC002DF0050E1200D3AE6EEF2CF023EF2DF061
:1058DC00010E120003EC2DF000EC2DF096EC2CF0E8
:1058EC00120000018551B1EC2CF0E1EC29F0120012
:1058FC00160E39015B6F370E5C6F12000101F56FEC
:10590C006000D7F76BFD12000101F56F6000D7F74F
:10591C006CFD12003D01739F000E796F78851200AB
:10592C0000018995000E886F0F0E12003D01739FC8
:10593C00000E796F788512003D01739F7885738F07
:10594C0012003901A495F1EC28F01200016E6000F0
:10595C0007F06BFD1200016E600007F06CFD120089
:10596C003D01739F7885738F1200000E0BEC26F0AF
:10597C001200010E0BEC26F01200000E3D01796FA7
:10598C001200000E49EC27F01200010E49EC27F032
:10599C00120003EC2DF0090E120006EC2DF0040E93
:1059AC00120006EC2DF0030E1200000E3D01796F73
:1059BC0012003D016C5112003D01739B12003D0120
:1059CC00748D12003D01749D12003D016A5112004C
:1059DC003D01738D12003D01739D12003D017995BF
:1059EC0012003D01769912003D01799F12003D0194
:1059FC006C5112003D01739B12003D01748D12001D
:105A0C003D01749D12003D016A5112003D01738DE0
:105A1C0012003D01739D12003D01799512003D016C
:105A2C00769912003D01799F1200D29A1200010E54
:105A3C001200020E1200050E1200010E12001400CC
:015A4C000158
:045A4E001200120030
:020000040030CA
:0A000000ECFFF7FFBFFFFFFFFFFF5B
:00000001FF
